:100000000C9456000C9472000C9472000C947200C4
:100010000C9472000C9472000C9472000C94720098
:100020000C9472000C9472000C9472000C94720088
:100030000C9472000C9472000C9472000C94720078
:100040000C9472000C9472000C9472000C94720068
:100050000C9472000C9472000C9472000C94720058
:100060000C9472000C9472000C9472000C94720048
:100070000C9472000C9472000C9472000C94720038
:100080000C9472000C9472000C9472000C94720028
:100090000C9472000C9472000C9472000C94720018
:1000A0000C9472000C9472000C94720011241FBE08
:1000B000CFEFDAE0DEBFCDBF0E9462000C9460009B
:0400C000F894FFCFE2
:1000C40084B18FEF84B985B1809585B92FEF84E32E
:1000D4009CE0215080409040E1F700C00000F3CF45
:0400E4000C94000078
:00000001FF
